:020000040800F2
:1000000000500020A5170008A3170008A11700083A
:10001000A1170008A1170008A117000800000000A0
:10002000000000000000000000000000A31700080E
:10003000A317000800000000A31700088F010008A4
:10004000A1170008A1170008A1170008A1170008B0
:10005000A1170008A1170008A1170008A1170008A0
:10006000A1170008A1170008A1170008A117000890
:10007000A1170008A1170008A1170008A117000880
:10008000A1170008A1170008A1170008A117000870
:10009000A1170008A1170008A1170008A117000860
:1000A000A1170008A1170008A1170008A117000850
:1000B000A1170008A1170008A1170008A117000840
:1000C000A1170008A1170008A1170008A117000830
:1000D000A1170008A1170008A1170008A117000820
:1000E000A1170008A1170008A1170008A117000810
:1000F000A1170008A1170008A1170008A117000800
:10010000A1170008A1170008A1170008A1170008EF
:10011000A1170008A1170008A1170008A1170008DF
:10012000A1170008A1170008A1170008A1170008CF
:10013000A1170008A1170008A1170008A1170008BF
:10014000A1170008A1170008A1170008A1170008AF
:1001500008B540F2172000F092FC0B4C40F29730AB
:1001600000F080FC40F2023000F07CFC20464FF4AE
:10017000805100F069FC2046022101224FF4805397
:1001800000F038FB01F082FB00080140704710B519
:100190000B4C227863882AB9BDE8104009481946FB
:1001A00000F058BC6168074811F001011ABF022134
:1001B00000220A4600F01EFB63680133636010BD35
:1001C0008C0000200008014038B540F2023000F0F9
:1001D00049FC524B1B685B0670D5002001F032FBD6
:1001E0006FF07F4001F01EFB01F040FB4FF44170C7
:1001F00000F038FC02224FF4C0434948002100F0CF
:10020000F9FA47484FF4C04100F01CFC01F012FB22
:10021000044601F00FFBA4F57A739842F9D84048E0
:100220004FF4C04100F013FCC0433E4BC0F34130DB
:10023000187020B94FF480725A80022403E04FF402
:1002400000725A800124022100225B88334800F0AA
:10025000D1FA40F2033000F005FC334800210222BD
:1002600044F4004300F0C6FA2F484FF4004100F078
:10027000EEFB58B12C48022100224FF4004300F05D
:10028000B9FA29484FF4004100F0DEFB2648214628
:1002900000F0D8FB01F0CEFA054601F0CBFAA5F547
:1002A0009C43203B9842F8D821461F4800F0CFFBE2
:1002B000044601F0E3FA0CB100F002FA002000F06D
:1002C000FEF900F07DFB002001F0BCFA174801F0B8
:1002D000A9FA40F2172000F0D2FB40F2973000F06C
:1002E000C1FB40F2023000F0BDFB0C484FF48051DE
:1002F00000F0AAFB01224FF480530848022100F0CD
:1003000079FA01F0ABFA01F0B1FA0948002100F0E6
:100310000DF900F0A7F9002038BD00BF000801402A
:10032000001001408C000020000C0140A0BB0D001B
:10033000201A0008054AD37810791B0403EB0063E8
:1003400050780344907803EB00207047940000201D
:100350002DE9F8431D460B780F4603F07F03212B50
:10036000144640F0AA804B78013B052B00F2A58093
:10037000DFE803F0034160379B3DDFF84C810DB1AE
:100380002B880BB9062329E0CA788B784C4E43EAB8
:100390000223A6F808342B882168A6F800343046DA
:1003A0002A8801F07BFA7B883446B3B93378212B55
:1003B00013D1FFF7BFFF434B1B68984203D3D6F816
:1003C0000C34984207D301200A2384F8100488F8DB
:1003D0000030BDE8F883C6F80404032388F8003031
:1003E00060E0394B1A780A2A5CD1022201E0364BD0
:1003F00002221A7056E0344B1A78022A03D0052ADA
:1004000001D0092A11D179882D4A09200129A2F8A1
:100410000814187046D9D2F804340239206803EB66
:1004200081212A8801F03AFA3CE00021012200F003
:10043000BAFB42E0244ED4F800803378062B12D069
:100440000A2B13D0032B16D104233370FFF772FF4E
:100450001B4F014697F80090B7F80824484600F073
:100460002CF9002309E00723337004E0144B00202B
:1004700093F8103401E00020034688F80030236828
:10048000020A58702368000C9A7023683278D8707A
:1004900023681A71236800225A7106232B800B4AA5
:1004A000089B1A600120BDE8F883074A2368127888
:1004B00001201A702880BDE8F8830020BDE8F88389
:1004C000940000200000002004000020D104000857
:1004D00038B5144B1A781C46042A02D0072A1DD0BE
:1004E00038BD114D00F0E6FAB5F8080438B9FFF749
:1004F00021FF2B78412B0CD100F0BCF809E0D5F896
:100500000434023803EB80202946B5F8002400F0BB
:10051000C1F800F0E1FA0523237038BDBDE838408A
:10052000FFF716BE0400002094000020404A414B13
:10053000F0B51B68043252F8047C12683B449F18E3
:100540003D4B0E461A686423C2F30B02A2F1080465
:10055000B4FBF3F5092D85B0384907D9392381F863
:100560004A3081F84B3081F84C3011E005F1300E03
:1005700003FB15450A23B5FBF3F481F84AE004F1C7
:10058000300E03FB1454303481F84BE081F84C40BA
:10059000402A08BF80222A4C920202F10062294BB5
:1005A000C4F80C241B6803F00303032B03D1264B70
:1005B0001B689B0702D5302381F8723000236FF04F
:1005C00003015943214A27FA01F1D51801F00F011F
:1005D000013B303113F1080FE971F0D1531E07329E
:1005E00013F8011F392984BF073119709342F7D1DD
:1005F0000023042284F819340092154B154A164939
:10060000019203F110044FF480620292002E18BF91
:10061000234601F1120200F06DFA104B21211860FF
:100620000F4B7F2205B0BDE8F04000F05BBB00BF80
:10063000ECF7FF1FE8F7FF1FE0F7FF1F04000020A3
:1006400094000020202002401C200240A50400202D
:1006500008000020A4050020C4180008A005002000
:100660005103000808B5024B186800F067FAFAE772
:10067000A005002038B5064D20F47F742B6824F0C7
:1006800003049C4203D0204600F078F82C6038BD6B
:1006900080000020F8B507460D4616460C46631B41
:1006A000B34206DA781B204434F8021B00F036F817
:1006B000F5E7BDE8F840FFF769BD64207047704773
:1006C00009490A4A0B6818680240B2F1005F09D173
:1006D000074AC3F3140313600B681A6882F308888F
:1006E0005B681847704700BF000000200000FE2F25
:1006F00008ED00E0064B1868064B1B68B3F5007F59
:1007000082BF054B1B68184300F03500704700BFDF
:100710000C200240E0F7FF1F4C20024038B5044691
:100720000D4600F0E1F9114B1B68B3F5007F04D9C9
:100730000F4B9C4201D90F4A00E00F4A136843F067
:1007400001031360258000F0CFF9084B1B68B3F557
:10075000007F04D9064B9C4201D9064A00E0064AB4
:10076000136823F00103136038BD00BFE0F7FF1FDB
:10077000FFFF0708502002401020024010B5044639
:1007800000F0B2F9154B1B68B3F5007F09D9144B83
:100790009C4206D9134B1A6842F002021A60124AB0
:1007A00005E0124B1A6842F002021A60104A146007
:1007B0001A6842F040021A6000F096F9074B1B6875
:1007C000B3F5007F04D9064B9C4201D9054A00E0ED
:1007D000064A136823F00203136010BDE0F7FF1F01
:1007E000FFFF070850200240542002401020024022
:1007F000142002402DE9F0414FF6E07796469C46E2
:100800000268436800254CFA05F4E4071BD5072D60
:10081000ACB28BBF3C4616461E46A40098BFA4B29D
:100820004FF00F0808FA04F826EA080604F1020857
:100830000EFA08F801FA04F448EA04043443082DD7
:100840002CBF2346224601350437102DBFB2DAD122
:1008500002604360BDE8F081024A136843F0807390
:100860001360704700100240062827D8DFE800F028
:1008700004090E13181D2200114B1B689901FBD5AA
:1008800070470F4B1B681A01FBD570470C4B1B6858
:100890009B00FBD570470A4B1B689803FBD570473C
:1008A000074B1B689907FBD57047064B1B689A07D7
:1008B000FBD57047044B1B689B07FBD5704700BFF7
:1008C00000100240201002402410024006281FD8C9
:1008D000DFE800F004060B1015171900FFF7BCBF86
:1008E0000C4A136843F0806311E00A4A136843F02E
:1008F00080530CE0074A136843F4803307E0054A4D
:1009000002E0054A00E0054A136843F00103136062
:10091000704700BF00100240201002402410024027
:10092000034A136823F0030318431060704700BFA5
:1009300004100240034A136823F4701343EA804012
:100940001060704704100240034A136823F4803398
:1009500043EA00401060704704100240034A1368E5
:1009600023F4003343EA4040106070470410024013
:10097000034A136823F4404343EA80301060704711
:1009800004100240034A136823F4605343EAC02072
:100990001060704704100240034A136823F4E063B8
:1009A00043EA00201060704704100240034A1368B5
:1009B00023F0F00343EA0010106070470410024077
:1009C00008B50420FFF782FF0420FFF74DFF002049
:1009D000FFF7A6FF0320FFF779FF0320FFF744FF8F
:1009E0000120FFF79DFF0020FFF7E0FF0320FFF746
:1009F000BFFF0420FFF7D0FF0020FFF7C3FF022056
:100A000000F04EF80720FFF795FF0120FFF79CFF4D
:100A10000020FFF7A3FFFFF71FFF0020FFF724FFD1
:100A20000220FFF77DFF034A034B1A60034A044B81
:100A30001A6008BD005125028400002000A24A046B
:100A400088000020016170470904016170478068D7
:100A500008407047C3685940C16070470368194334
:100A600001607047430903F1804303F504331968BB
:100A700000F01F00012282400A431A6070474309B8
:100A800003F1804303F50433196800F01F000122CD
:100A9000824011431960196821EA02021A60704706
:100AA000034A136823F0070318431060704700BF20
:100AB00000200240054A136843F080031360044B92
:100AC000044A1A6002F188321A607047102002400E
:100AD0000420024023016745024A136843F0800363
:100AE000136070471020024008B5FFF703FEC307EC
:100AF000FBD408BD2DE9F0411E4603680546884633
:100B000017469847069BC0F8C850C360079BC0F8BB
:100B100000800361BDF8203047608382044B86600B
:100B2000C366044B8366044B4366BDE8F08100BF97
:100B30000B0D0008650D0008EB0D0008D0F8C8305B
:100B40005B6A184710B5D0F8C840A468A446BDE851
:100B50001040604737B5054600248475C4752146AA
:100B6000224640230094FFF7EDFFD5F8C830284611
:100B70005B6821469847EB691BB103B0BDE8304084
:100B8000184703B030BD10B5D0F8C840E469A4469A
:100B9000BDE81040604710B5D0F8C840246AA446AC
:100BA000BDE810406047D0F8C8301B691847D0F83E
:100BB000C8309B69184710B5044600210122FFF791
:100BC000F2FF002384F82C3010BD38B50368828F03
:100BD000C58EDB79AD1A9D42A8BF1D46836BADB2B1
:100BE0001A4400212B460446FFF7D5FFA84205D042
:100BF0002046FFF7E0FF4FF0FF3038BDA38F0344DE
:100C0000A38738BD38B503680446DD79838F00219A
:100C10009D42826B0FD22B46FFF7B5FF022322685D
:100C200084F82C30D379A16B0B44A363D279A38FC2
:100C30009B1AA38738BDFFF7A6FF032384F82C3047
:100C40000023A387A36338BD2DE9F34104460E4674
:100C500000F1440500F164082F6857B92046314679
:100C600004F1380204F13C0302B0BDE8F04100F0A9
:100C7000C5BA697933782A790B409A420BD104F1CD
:100C8000400300932046314604F1380204F13C034E
:100C9000B847012803D908354545DDD1DEE702B064
:100CA000BDE8F08110B50369044683638B79CA7986
:100CB00043EA02238387FFF7C7FF70B1A18F204665
:100CC00019B1BDE81040FFF79DBF0B460A46FFF77C
:100CD0005AFF042384F82C3010BD2046BDE8104094
:100CE000FFF769BF70B5002600EBC6056C6C2CB130
:100CF0000136042EF8D14FF0FF3070BD85F8481052
:100D000085F849206B64204670BD70B500F130064F
:100D1000002505642946324608230446FFF73BFFB9
:100D2000082804D02046BDE87040FFF744BFE38E9A
:100D30001BB194F93020002A05DA20463146BDE87F
:100D40007040FFF7AFBFA28A9A42EBD32269A58712
:100D5000A2632268D2799A4234BF0523062384F81D
:100D60002C3070BD90F82C3010B5062B044610D0F6
:100D7000072B24D0052B33D1FFF727FF002833DBC7
:100D8000A28FE38E9B1A2268D27993422CDC062331
:100D900010E0FFF71AFF002826DB204604F130019F
:100DA000FFF752FF48B100210B4620460A46FFF7E5
:100DB000EAFE042384F82C3010BD204610E0002108
:100DC0000B460A46FFF7E7FE002384F82C30236C1D
:100DD0001BB1204604F1300198470023236410BD65
:100DE000BDE81040FFF7E7BE10BD90F82C3010B5FD
:100DF000032B044607D0042B07D0022B1CD1BDE8DF
:100E00001040FFF7FFBE072313E0036C13B100F19E
:100E10003001984794F8303053B994F83130052BAD
:100E200006D1D4F8C830618E5B682046C9B29847B5
:100E3000002384F82C3010BDBDE81040FFF7BBBE86
:100E400038B54B88C27D04469A420D460FD0C37513
:100E5000D0F8C830DB689847D4F8C4203AB10023F2
:100E60006364E3646365E365204669889047012015
:100E700038BD1988012984BF012119801368C27DFA
:100E800001201A7070474A8812B91A8001207047F1
:100E90000020704701201880136800221A707047E4
:100EA00019880120022984BF0221198011680023BA
:100EB0000B7012685370704719880120022984BF93
:100EC00002211980116800230B701268537070475B
:100ED00038B514461A882568022A84BF02221A806F
:100EE0008988C9B2FFF763FE003018BF012028705F
:100EF000236800225A70012038BD08B58988012274
:100F0000C9B2FFF750FE012008BD08B5898800224C
:100F1000C9B2FFF748FE012008BD10B50B786BB9C8
:100F20004C887F2C0AD8D0F8C830847593F83020CC
:100F300032B149885B68C9B2984701E0002010BD12
:100F4000012010BD2DE9F04F0546488889B0C7B291
:100F5000000A02281646984611D0032800F0CB80DC
:100F6000012840F008812B6813602B68B8F8002036
:100F70001B78934228BF1346A8F80030FCE02B6989
:100F8000B8F80040136001930D235F43D5F8049037
:100F9000019819F8075009EB0703A54228BF254619
:100FA00019462A46029300F079FC019B641B19F84C
:100FB00007905E19A4B200230493029B1A79BDF82E
:100FC00010309A4240F291800C2253430393029BCB
:100FD000039AD3F809301344D3F804A0BAF1000FF0
:100FE00013D09AF800703046A74228BF27465146D2
:100FF0003A4600F053FC9AF80030E41B3D44994413
:101000003E44A4B2ADB21FFA89F94FF0000C029B26
:101010000398D3F80920039BD11812581FFA8CF3B8
:1010200093425FDA4FF0150B0BFB03FB8B683046E6
:1010300013F80B7003EB0B0AA74228BF2746514653
:101040003A46CDF818C03E440593E41B00F026FC58
:101050002F44DAF81150A4B2A542A8BF2546059B3B
:10106000ADB230462A46DAF80D1013F80BB000F096
:1010700015FCDAF81130BFB29B44641B2E44D944EE
:101080003D44DDF818C0A4B2ADB21FFA89F90027BB
:101090007B1C05939AF80430BFB2BB421FD9CDF830
:1010A0001CC0DAF80930C7EBC70713F807B0D91925
:1010B000A34528BFA34630465A46069300F0EEFBF0
:1010C000069BCBEB0404DB5D5D4499445E44A4B213
:1010D000ADB21FFA89F9059FDDF81CC0D8E70CF105
:1010E000010C94E7049B013366E7019BA3F802908F
:1010F000A8F800503DE02C6967B90923A3700423C8
:10110000E3702370B8F80030042B28BF0423A8F83C
:1011100000302BE0A868013F70B3EB689F422ADAE9
:1011200040F209438A889A4225D150F8270000F0FE
:10113000C0FB01304000C0B22070B8F800304FEA68
:101140008709984228BF18460022A8F80000B8F87E
:1011500000305B08013B9A4208DAAB6853F809306B
:10116000995C04EB420359800132F0E7032363707A
:101170003460012000E0002009B0BDE8F08F0000DD
:1011800030B54C78092C07D8044D55F824401CB1D3
:10119000A446BDE830406047002030BDC0190008BB
:1011A00030B54C780B2C07D8044D55F824401CB1B1
:1011B000A446BDE830406047002030BDE819000873
:1011C00010B54C78012C03D00AD3032C04D00CE0CA
:1011D0004C8854B9064C04E04C8834B9054C00E006
:1011E000054CA446BDE810406047002010BD00BF7C
:1011F0000B0F0008FB0E0008D10E000810B50C788C
:1012000014F0600F12D104F01F04012C0AD005D392
:10121000022C0BD1BDE81040FFF7D2BFBDE8104053
:10122000FFF7AEBFBDE81040FFF7BABF002010BD0A
:10123000024B41F080011960704700BF4C5C0040D8
:101240000C4A136823F4E04323F040039BB213607D
:10125000136823F4804323F070039BB242F8043BED
:10126000054B9A42EDD10368DB7920335B000383A1
:10127000704700BF045C0040205C004030B5A9B955
:101280002F4B10241B68012023F4E04323F040037C
:101290009BB2002A0CBF20251025054218BF4340F1
:1012A0004000013C80B2F4D1254803600B0620D5F4
:1012B00001F07F01890001F1804101F5B8410B681F
:1012C000102423F4E04323F040039BB20120002AC2
:1012D0000CBF20251025054218BF43404000013CAB
:1012E00080B2F4D10B604ABB48F6CF730A68134052
:1012F00023E0890042B94CF68F7001F1804303F579
:10130000B8431C682040186001F1804101F5B841E4
:101310000B68102423F4804323F070039BB2012058
:10132000002A14BF4FF480554FF44055054218BFB2
:1013300043404000013C80B2F2D10B6030BD00BFA1
:10134000005C00400B060BD501F07F01890001F124
:10135000804101F5B841086800F03000102809E02C
:10136000890001F1804101F5B841086800F440505E
:10137000B0F5805F14BF00200120704701F07F01AD
:10138000F0B58E0006F1804606F5B846306800F0EC
:101390003000302839D01E48C9000468A4B20C447B
:1013A00004F1005404F54054640025685C1CADB29F
:1013B0006D00641005EB840405F1804704F180445E
:1013C00007F5C04704F5C044A74204D032F8025BD9
:1013D00027F8045BF8E70268102092B211440D4A26
:1013E0000A44520013603268012122F4E04222F0E4
:1013F000400292B211F0300F18BF4A404900013844
:1014000089B2F7D132601846F0BD0020F0BD00BFB0
:10141000505C0040023000202DE9F0418C0004F1C6
:10142000804404F5B844206800F44050B0F5405FB3
:1014300051D02C4ECD0037682B48BFB22F443844D2
:1014400040000068C0F30900984208DA3068264B73
:1014500080B2284403445B001B68C3F3090330686F
:101460005E0880B205442148964628444000006842
:10147000354680B2400000F1804000F5C04007468C
:1014800003F0010C35B137F8048B013D2EF8028BC7
:10149000ADB2F7E7BCF1000F03D010F8260002F858
:1014A000160040F68F72206802402260104A525C9B
:1014B000A2B92268102022F4804222F0700292B277
:1014C000012111F4405F18BF4A404900013889B238
:1014D000F7D1226002E00020BDE8F0811846BDE8A7
:1014E000F08100BF505C0040063000200430002036
:1014F00098050020F8B52E4F054639683C468EB257
:1015000016F4806F07D040230383FFF723FB4FF6C9
:10151000FF333B60F8BD080430D516F0100308BF58
:1015200048F60F7701F00F014FEA81021BBF02F16D
:10153000804303F5B84302F180401B6807BF00F504
:10154000B840D0F800E0C3F3C02301330ABF0EEA6D
:101550000707DBB2076001EB4100034405EB83039F
:101560005B6E13B12846984708E002F1804340F6CD
:101570008F7203F5B84319680A401A60310505D522
:101580004FF2FF7323602B6A03B19847F20405D52D
:101590004EF6FF7323606B6A03B19847B30505D518
:1015A000AB6A03B198474FF6FF532360F8BD00BF05
:1015B000445C004008B508484FF40001FFF74EFABC
:1015C000064A0749002313600B6041F80C3C4FF4B6
:1015D0001C431360034808BD1C100240405C0040DF
:1015E000505C0040B00400202DE9F7438E466E4663
:1015F00053490446086849682EF07F0703C60EF079
:101600007F01880000F1804000F5B84006680A9D1F
:1016100026F4E04626F07F060E43B6B2066048F692
:101620008F16D0F800E007F0FF0C0EEA06060DF169
:10163000080E0EEB420232F8082CDFF810E13243BC
:101640000260CE00D7B9C9B1DEF80020278B1FFA9F
:1016500082FC3C4AB444624452003E2B17601A4656
:1016600040D913F01F0F18BFA3F120026FEA825276
:101670006FEA5242DEF800E092B23AE0DEF8002073
:10168000278B92B2324402F1005202F540525200CE
:1016900017601DB10C2202FB0142556648F6CF725D
:1016A000D0F800804FF0100908EA020202600268D8
:1016B0004FF0010822F4E04222F0400292B218F00A
:1016C000200F18BF88EA02024FEA4808B9F1010961
:1016D0001FFA88F8F3D11F4402602783BCF1000F82
:1016E0002BD1B1E713F0010F18BF5A1CDEF800E050
:1016F00092021FFA8EFEB644134E76447600326094
:101700001DB10C2202FB01418D664CF68F720168FF
:1017100010250A4002600268012122F4804222F072
:10172000700292B211F4405F18BF4A404900013D77
:1017300089B2F7D13B440260238303B0BDE8F08354
:10174000181A00080430002006300020505C0040C9
:101750000B0622D4114B10205A54890001F180410C
:1017600001F5B8410B6823F4804323F070039BB26A
:101770004AB1012212F4005F18BF534052000138F1
:1017800092B2F7D108E0012212F4405F18BF534033
:101790005200013892B2F7D10B60704798050020D3
:1017A000FEE770470022154915485318834204D2BA
:1017B000144BD35853500432F5E7134A934203D2E3
:1017C00000221A600433F8E7104C114B9C4203D2FC
:1017D00054F8043B9847F8E70E4C0F4B9C4203D259
:1017E00054F8043B9847F8E7FEF7EEFC0B4C0C4B23
:1017F0009C4203D254F8043B9847F8E700000020CD
:101800008C000020541A0008A4090020541A000873
:10181000541A0008541A0008541A0008541A0008F0
:10182000541A0008024B20F07F401860704700BF38
:1018300014E000E0024B186820F07F40704700BFC2
:1018400018E000E0044A00F00400136823F00403E9
:1018500003431360704700BF10E000E0024A1368C2
:1018600043F002031360704710E000E0024A13687F
:1018700043F001031360704710E000E0024A136870
:1018800023F001031360704710E000E0014A024BAF
:101890001A60FEE70400FA050CED00E010B5431EE7
:1018A0000A44914204D011F8014B03F8014FF8E7C4
:1018B00010BD034613F8012B002AFBD1181A01387A
:1018C000704700001201000200000040501D176028
:1018D00000010102030109020000010100C032E41D
:1018E000180008000100000000000000F0180008C7
:1018F0000904000000FE01020400000000051900B8
:10190000080900000009210BFF0000041A01426CC5
:1019100061636B2053706865726520546563686EFF
:101920006F6C6F6769657300426C61636B204D611A
:101930006769632028444655205570677261646565
:101940002920666F722053544C696E6B2F44697363
:10195000636F766572792C20284669726D776172A3
:10196000652076312E362E312D35302D67373636BF
:10197000333739342900426C61636B204D616769EC
:10198000632028557067726164652920666F722034
:1019900053544C696E6B2F446973636F766572792B
:1019A0002C20284669726D776172652076312E365B
:1019B0002E312D35302D67373636333739342900FF
:1019C000A10E000800000000000000000000000060
:1019D000000000001B0F0008450F00080000000079
:1019E000730E0008410E0008B90E00080000000048
:1019F00000000000000000000000000000000000E7
:101A000000000000000000000000000000000000D6
:101A1000950E0008870E0008000200040000000672
:101A2000B515000831120008E91500084112000838
:101A30007D12000851170008451300087D130008A7
:101A400019140008F5140008000000000000000050
:041A50000000000092
:101A540000200008020000000E1900087619000892
:101A6400A5040020280000200E19000828190008E9
:101A7400A50400205800002040496E7465726E6110
:101A84006C20466C6173682020202F307830383009
:101A940030303030302F382A3030314B612C3030F8
:101AA400302A3030314B670040496E7465726E6184
:101AB4006C20466C6173682020202F3078303830D9
:101AC40030303030302F382A3030314B670000004E
:0C1AD400FFFFFFFF00127A0000127A00F2
:04000005080017A533
:00000001FF
